:020000040800F2
:10000000D849032499030008F53600089336000800
:10001000F1360008A319000811480008000000008C
:10002000000000000000000000000000113800087F
:10003000C519000800000000F73600080D39000857
:10004000B3030008B3030008B3030008B3030008B8
:10005000B3030008B3030008B3030008B3030008A8
:10006000B3030008B3030008B3030008B303000898
:10007000B3030008B3030008B3030008B303000888
:10008000B3030008B3030008B3030008B303000878
:10009000B3030008B3030008B3030008B303000868
:1000A000B3030008B3030008B3030008B303000858
:1000B000B3030008A9390008E5390008B3030008B4
:1000C000B3030008B3030008B3030008B303000838
:1000D000B3030008C1470008B3030008B3030008D6
:1000E000B3030008B303000800000000B3030008D6
:1000F000B3030008B3030008B3030008B303000808
:10010000B3030008B3030008B3030008B3030008F7
:10011000B3030008B3030008B3030008B3030008E7
:10012000B3030008B3030008B3030008B3030008D7
:10013000B3030008B3030008B3030008B3030008C7
:1001400000000000000000000000000000000000AF
:10015000B3030008B3030008B3030008B3030008A7
:10016000B3030008B3030008B3030008B303000897
:10017000B3030008B3030008B30300080000000045
:10018000B3030008B3030008B3030008B303000877
:10019000B3030008B3030008B3030008B303000867
:1001A000B3030008B3030008B3030008B303000857
:1001B000B3030008B3030008B3030008B303000847
:1001C000B3030008B3030008B3030008B303000837
:1001D000B3030008B3030008B3030008B303000827
:1001E000B3030008B3030008B3030008B303000817
:1001F000B3030008B3030008B3030008B303000807
:10020000B3030008B3030008B3030008B3030008F6
:10021000B3030008B3030008B3030008B3030008E6
:10022000B3030008B3030008B30300080000000094
:10023000B3030008B303000800000000B303000884
:10024000B3030008B3030008B3030008B3030008B6
:10025000B3030008B3030008B3030008B3030008A6
:10026000B3030008B3030008B3030008B303000896
:10027000B3030008B3030008B30300080000000044
:10028000B303000800000000B303000800000000F2
:1002900000000000B303000800F002F800F052F87C
:1002A0000AA090E8000C82448344AAF10107DA45D1
:1002B00001D100F047F8AFF2090EBAE80F0013F0D1
:1002C000010F18BFFB1A43F001031847184800003C
:1002D00048480000103A24BF78C878C1FAD85207BD
:1002E00024BF30C830C144BF04680C6070470000B0
:1002F0000023002400250026103A28BF78C1FBD82F
:10030000520728BF30C148BF0B607047662904F010
:100310006483642900F03A81002070471FB504F01F
:1003200057FB9DE8030000F095FA00F0DCF900F0BF
:1003300077FD04000020002104F034FBE0601FBDC5
:1003400010B510BD00F0A6FE1146FFF7E7FF04F060
:10035000AFFA00F0C4FE03B4FFF7F2FF03BC04F0F1
:100360008DFA00000B49D1F800C04A685CF8043BE4
:100370001068184442F8040B8C4528BFA1F1DC0C2E
:100380008A4228BFA1F1DC02C1F800C04A6020F017
:10039000004070476C4900240948804709480047DD
:1003A000FEE7FEE7FEE7FEE7FEE7FEE7FEE7FEE725
:1003B000FEE7FEE704480549054A064B7047000082
:1003C0001539000899020008D8490024D8490324A7
:1003D000D8490224D849022470B5064600F01EFA16
:1003E000056806F10B0020F00704B4429CBF002012
:1003F00070BD2B466A68BAB11068A04210D304F1F0
:10040000080188423CBF5068586007D351681019F2
:1004100041601168091B016058601460101D70BDB7
:1004200013465268002AE7D12146284600F0FEF91B
:100430000028DED170BD70B50446051F00F0EEF94E
:100440000068002C14BF446870BD002C18BFAC427B
:100450003CBF20466468F8D301680A18AA4218BF56
:10046000456003D12A680546114401602868411996
:10047000A1421CBF6C6070BD61686960216808445E
:10048000286070BD53EA020C00F069802DE9F04B42
:100490004FF00006002B1FBFB3FA83F503FA05F4F3
:1004A00024FA05F65E4012BF1643B2FA82F502FA4C
:1004B00005F4C5F120051EBF22FA05FC44EA0C0430
:1004C000203556EA044C4FEA144418BF641C4FF020
:1004D00000084FF00009904271EB030C39D300295A
:1004E00019BFB1FA81F701FA07F6B0FA80F700FAFE
:1004F00007F6C7F120071EBF20FA07FC46EA0C06E4
:100500002037B6FBF4FCA7EB0507103F07F01F0BE5
:10051000CBF120060CFA0BFB2CFA06F644BFB346CF
:100520000026202FA4BF5E464FF0000B5BEA060CAE
:1005300008BF4FF0010B19EB0B09ABFB027C48EB3A
:100540000608C01B06FB02CC0BFB03CC71EB0C01B5
:10055000C1E70B46024641464846BDE8F08B13B55D
:100560004FF000004FF00001AFF30080BDE81C40E9
:10057000704700000FB4044910B503AA029800F0B8
:1005800007FC10BC5DF814FB9C0600242DE9F0412B
:100590000646002410687529314616A510D0AFF321
:1005A0000080002802DA404213A507E031688A077C
:1005B00001D512A502E0490704D511A5012401E0E7
:1005C000AFF3008000210A2206F1240709E0B0FB06
:1005D000F2FCB0FBF2F302FB1C00303078541846FA
:1005E000491C0028F3D123462A463046BDE8F04195
:1005F00000F066B9000000002D0000002B00000094
:10060000200000002DE9F0410F4605460020286239
:100610002846E968884770B3252805D0D5E9012127
:100620009047286A401CF2E7E96828460026884778
:100630006C2804460AD0682C08D04C2C35D06A2C83
:1006400031D0742C31D07A2C2FD016E0E9680646D0
:1006500028468847B042044608D16C2E23D04FF478
:1006600080662846E9688847044606E06C2E03D079
:100670004FF4807601E01EE04026E4B1A4F1410091
:10068000192802D8203446F400663A462146284606
:100690002E60FFF73BFE60B1012808D0FF1D27F058
:1006A00007070837B4E78026DBE70026D9E73F1DB8
:1006B000AEE72046B2E7286ABDE8F0810B4910B5E5
:1006C000A1F17C020A4CC2E93712372106E000EBA7
:1006D000104342F82130074B00FB03400B1EA1F1F1
:1006E0000101F4DC10BD0120E8E700000C49002402
:1006F000E119D666CD0D0100032A40F2308010F0DA
:10070000030C00F0158011F8013BBCF1020F6244AC
:1007100098BF11F801CB00F8013B38BF11F8013B3D
:10072000A2F1040298BF00F801CB38BF00F8013BEA
:1007300011F0030300F03E83083AC0F0088051F83E
:10074000043B083A51F804CBA0E80810F5E7121D65
:100750005CBF51F8043B40F8043BAFF30080D20784
:1007600024BF11F8013B11F801CB48BF11F8012B50
:1007700024BF00F8013B00F801CB48BF00F8012B73
:1007800070474FF000020429C0F0128010F0030CF3
:1007900000F01B80CCF1040CBCF1020F18BF00F874
:1007A000012BA8BF20F8022BA1EB0C0100F00DB823
:1007B0005FEAC17C24BF00F8012B00F8012B48BF81
:1007C00000F8012B70474FF0000200B51346944625
:1007D0009646203922BFA0E80C50A0E80C50B1F199
:1007E0002001BFF4F7AF090728BFA0E80C5048BFAD
:1007F0000CC05DF804EB890028BF40F8042B08BF4B
:10080000704748BF20F8022B11F0804F18BF00F846
:10081000012B7047704770477047000000487047D1
:100820007C490024704770477047704738B50446CC
:100830000A4600206946AFF30080002808BF38BD93
:1008400002460099204600F0EFFA012038BD012051
:1008500000F018BCF8B5AFF30080054600200C4648
:10086000102000BF0646A819A0420DD9324669469D
:100870000020AFF30080070008BF00F003FC0098E1
:10088000A04218BF0546C419FFF7C8FF0560074618
:10089000F01D20F007004619284600F00AF8B4427F
:1008A00008BFF8BDA21B31463868BDE8F84000F02B
:1008B000BBBA00210160C0E90110704710207047E9
:1008C0002DE9F0470D4699469246044600F124086A
:1008D0000168880604D5E06921F01001216000E07C
:1008E0000120A84201DD471B00E00027A1697A1919
:1008F00002EB0900081AA0612078C00602D4204645
:10090000AFF30080002608E0D4E901211AF80600C0
:100910009047206A401C761C20624E45F4DB20780C
:10092000C0060AD52046AFF3008006E0D4E90121D5
:1009300030209047206A401C2062381EA7F1010732
:10094000F4DC07E0D4E9012118F805009047206A9B
:10095000401C2062281EA5F10105F3DC2046AFF300
:1009600000802078000602D50220BDE8F087012033
:10097000FBE770472DE9FF4F0C461E464FF0FF374F
:100980008BB0D2E90001DDF860800A908A46C1F39D
:100990000A5505B93D46002108464FF00000BAF15E
:1009A000000F00F4400005DA00EB80004FF4400136
:1009B00001EA50004FEA9059B9F1010F00DDB94644
:1009C0000A9850EA4A000ED044F61050A5F2FF35BE
:1009D00045432F14B8F1000F1ED07542291E1EDDAD
:1009E000C9F100021CE0B8F1010F4FF0000001D086
:1009F000302103E0F24305E02154401CB042FBDB10
:100A000030460022002121540B99C1F80880C1E929
:100A100000200FB0BDE8F08FBD1B6D1CDEE74A461D
:100A200000DA694206A800F0B7FA06AB93E80700BF
:100A300003AB83E8070050460A9900F0DBFB8DE822
:100A40000700A0F500501F3800900398002D0ADD24
:100A500042F21F014A460844002303A90390684656
:100A600000F044FE09E0A0F500504A461F3800237C
:100A700003A90390684600F04EFE8DE807000004CD
:100A8000000C03D04FF0FF30410800E01046B8F1F1
:100A9000000F03D00022009215461EE0751E05D4FB
:100AA00000F0DCF9303262556D1EF9D5B3460122F3
:100AB000084302D000227F1C04E02078302801D1B6
:100AC00000227F1E002A099784D01DE0112D07DA2D
:100AD00000F0C4F9303262556D1C50EA0102F5D1C4
:100AE000084302D00098C8B10EE00021681E05E05E
:100AF000235C625C63542254401E491C8142F7DB34
:100B0000AB46A81B401E0990002004F80B000B9870
:100B1000099AC0F80880C0E9002B7AE711264FF047
:100B2000000857E72DE9F04F88460446D21D22F011
:100B3000070191B0D1E90001CDE90A0103F06AFE95
:100B400002460B98C00F01D02D2007E020688107D6
:100B500001D52B2002E0202101EAC000032A0990E0
:100B600001D0072A05DB03464146204600F0D4F9B0
:100B70000BE12078800601D5E06900E00620B8F19D
:100B8000650F814606D0B8F1660F18D0B8F1670F2F
:100B900070D131E00020B9F1110F009001DB112379
:100BA00001E009F101030AAA01A90CA8FFF7E2FE7E
:100BB000DDE90C70002609F10105834647E00120BC
:100BC0004B4600904FF000470AAA01A90CA8FFF776
:100BD000D1FEDDE90DB00C995D46002610B909F192
:100BE00001000D18B9EB050003D4C0F1FF3609F17F
:100BF0000105A5EB09002BE0B9F1010F01DA4FF077
:100C000001090020B9F1110F0090484601DD1123C0
:100C100000E003460AAA01A90CA8FFF7ABFEDDE934
:100C20000C704D4600268346207800070AD4AB4559
:100C300000DA5D4601A8012D04DD411911F8011CFF
:100C4000302907D04F4502DA17F1040F04DA0120EA
:100C500082460FE06D1EEEE7002F02DCED1B3E44E6
:100C600003E0781CA84200DD7D1CB81B00F1010ADE
:100C70004FF000472078000703D4AA4501DB4FF06E
:100C8000FF3A0021B7F1004F0DF143088DF84310F2
:100C900024D002202B23002F01DA7F422D230A21AA
:100CA000021EA0F1010000DC5FB197FBF1FC97FB95
:100CB000F1F201FB1C7C17460CF1300C08F801CD59
:100CC000EEE7A8F1010003702188090501D545214F
:100CD00000E06521A0F1010800F8011C09980FA9A6
:100CE000A1EB0807FF1D00B10120411901EBEA70DB
:100CF000A1693844081A401EA0612078C00602D4B9
:100D00002046AFF30080099828B1D4E9012190472B
:100D1000206A401C20622078C00622D52046AFF30E
:100D200000801EE0002E04DBB34502DD01A8805DDB
:100D300000E03020D4E901219047206A401C206265
:100D4000761CAAF101005FEA000A0AD100F068F8F7
:100D5000C0680168405CD4E901219047206A401CCA
:100D60002062281EA5F10105DCDC07E0D4E90121A1
:100D700018F8010B9047206A401C2062381EA7F12A
:100D80000107F3DC2046AFF30080032011B041E6F9
:100D9000074B70B50D467B4400F0ABF8044628467F
:100DA00000F06CF910B14FF0FF3070BD204670BDFF
:100DB000FB3A000010B5203AC0F00B80B1E81850A3
:100DC000203AA0E81850B1E81850A0E81850BFF435
:100DD000F5AF5FEA027C24BFB1E81850A0E81850D4
:100DE00044BF18C918C0BDE810405FEA827C24BF28
:100DF00051F8043B40F8043B08BF7047D20728BFB6
:100E000031F8023B48BF11F8012B28BF20F8023B04
:100E100048BF00F8012B7047004870477449002410
:100E20000048704794490024034640688C460028D7
:100E300018BF88423CBF03464068F8D3186818447E
:100E4000884207D00CF1030020F00700001D411A72
:100E5000521A0146081D0A60FFF7EDBA30B5B0F12D
:100E60000A024FEA900E71F100034EEA817EB0EB68
:100E70000E0061EB91014FEA101E4EEA017E10EB6D
:100E80000E0041EB11114FEA102E4EEA016E10EBED
:100E90000E0041EB11214FEA104E4EEA014E10EBCD
:100EA0000E0041EB1141401841F100014FEAD00022
:100EB00040EA41704FEAD10110EB80054FEA81040E
:100EC00044EA907444EB01046D1944EB0404521B92
:100ED000A3414FF0000348BF0A3200D530BD401C8B
:100EE00041F1000130BD000001694A1C026108782F
:100EF000704700B58FB0CDE901310021059105495A
:100F00007944CDE9031011466846FFF77BFB0FB02B
:100F100000BD0000E5FFFFFF2DE9F0411F4604463C
:100F200003260168072A01F4006004DB08B116A556
:100F300005E016A503E008B115A500E015A521F010
:100F400010002060A069C01EA0610FB1401EA0610A
:100F50002046AFF300804FB1D4E9012138469047D5
:100F6000206A401C2062C01C206206E0206AFAE76A
:100F7000D4E9012115F8010B9047761EF8D22046DE
:100F8000AFF30080BDE8F0814E414E006E616E000F
:100F9000494E4600696E66002DE9F04781461646C7
:100FA0008AB0354878440DC88DE80D003248784441
:100FB000801C03AC0DC884E80D0041F69B3008444A
:100FC000372190FBF1F290FBF1F5A5F1800501FBD3
:100FD00012041B3C02D56442012000E00020DFF82F
:100FE00098A080460027FA44AAF1BE0A0EE0E00766
:100FF0000AD03246684607EB470101230AEB81011C
:1010000000F089FB8DE8070064107F1C002CEED1F6
:10101000194F7F44AE3F19E0E80715D007EB0410E5
:101020000DF1180A90E80E008AE80E00C068F04240
:1010300001D1981908903246012306A903A800F0AF
:101040006AFB03AB83E807006D10641C002DE3D13D
:101050004FF0010332466946B8F1000F03A802D0F1
:1010600000F044FB01E000F056FBC9E90001C9F8BB
:1010700008200AB0BDE8F087243B0000007B00F0A8
:101080008000704710B500F039F8BDE8104000F05E
:101090002FB870477546FFF7BFFEAE46050069469C
:1010A000534620F00700854618B020B5FFF782F9B7
:1010B000BDE820404FF000064FF000074FF0000859
:1010C0004FF0000B21F00701AC46ACE8C009ACE8DA
:1010D000C009ACE8C009ACE8C0098D46704710B53E
:1010E0000446AFF300802046BDE81040FFF733B957
:1010F000002801D003F0C2BB7047000010B50128E2
:1011000005D0002103A000F055F8012010BD09A171
:10111000F8E7000053494752544D454D3A204F756A
:1011200074206F662068656170206D656D6F7279DF
:10113000000000003A2048656170206D656D6F7297
:101140007920636F72727570746564004FF0013CB2
:1011500050F8042B51F8043B9A4215D1A2EB0C0332
:10116000934313EACC130BD150F8042B51F8043BF2
:101170009A4209D1A2EB0C03934313EACC13E7D0B4
:101180004FF00000704700BFD01A01BAB1FA81F1E8
:1011900001F0180122FA01F0CB40C1F12001DBB2CD
:1011A000C0B2C01A2CFA01F3D11A914311EAC3114B
:1011B000E6D1704770B505460C460A2000E06D1C6C
:1011C00000F011F835B128780028F8D102E0641C4D
:1011D00000F009F814B120780028F8D1BDE870407B
:1011E0000A20AFF3008008B569468DF8000003209F
:1011F000ABBE08BD5FEA400C08BF91F0000F4FEA9C
:101200008C234FEAC12243EA51514FEA1C5018BFC8
:1012100000F5F0404FEA300018BF41F000415FEAAE
:101220006C5C00F02980BCF1FF3F08BF40F08040BB
:101230007047130C06BF12044FF0100C4FF0000C57
:10124000130E04BF12020CF1080C130F04BF12019D
:101250000CF1040C930F04BF92000CF1020CD30F9D
:1012600004BF52000CF1010C11464FF00002A0F136
:101270001F00A0EB0C00704711F0004F08BF704733
:1012800031F000413FF4D5AF0B0C06BF09044FF01D
:10129000100C4FF0000C0B0E04BF09020CF1080CEF
:1012A0000B0F04BF09010CF1040C8B0F04BF890064
:1012B0000CF1020CCB0F04BF49000CF1010CCCF176
:1012C0002003A0EB0C0022FA03F302FA0CF241EA2D
:1012D000030100F10100704720F07F4C80EA030019
:1012E00023F07F47ACEB070303F57C5300F000408D
:1012F00003F1FF032DE980494FEA154B09B44FEA8A
:10130000144325EA0B4E24EA03480FF2042606EBA9
:10131000132749083E785FEA320203FB0667C7F5E8
:10132000000707FB06F64FEA54374FEAD64606F1A8
:10133000020607FB066CCCF1005C4FEA1C472CEA66
:10134000074C07FB06F40CFB06F504EB15464FEAC9
:10135000961634BF00204FF000404FEAD13706FB0D
:1013600007FC4FEA1C4C0CFB0BF7D21B03FB0CF7E2
:1013700061EB07010CFB0EF7B0EB074072EB174275
:101380000CFB08F734BFA2EB0742B2EB074261EB5C
:1013900017414FEA0C444FEA910706FB07FC4FEA5E
:1013A0001C4C0CFB0BF7B0EBC74072EB573203FB46
:1013B0000CF734BFA2EBC742B2EBC74261EB573127
:1013C0000CFB0EF7B0EBC70072EB57720CFB08F783
:1013D00034BFA2EBC702B2EBC70261EB5771039FA8
:1013E0004FEA816141EA921104EBCC044FEAD13714
:1013F0004FEA826206FB07FC42EA90124FEA8060E5
:101400004FEA1C4C0CFB0BF7D21B03FB0CF761EBF8
:1014100007010CFB0EF7B0EB074072EB17420CFB19
:1014200008F734BFA2EB0742B2EB074261EB17416A
:101430004FEA8C554FEA910704EB9C2406FB07FC0E
:101440004FEA1C4C0CFB0BF7B0EBC74072EB57326A
:1014500003FB0CF734BFA2EBC742B2EBC74261EB10
:1014600057310CFB0EF7B0EBC70072EB57720CFB59
:1014700008F734BFA2EBC702B2EBC70261EB5771AA
:1014800015EB4C254FEA816141EA92114FEA8262E5
:101490004FEAD13742EA901206FB07FC44F1000400
:1014A0004FEA80604FEA1C4C0CFB0BF7D21B03FB8E
:1014B0000CF761EB07010CFB0EF7B0EB074072EB8A
:1014C00017420CFB08F734BFA2EB0742B2EB07420E
:1014D00061EB174115EB1C154FEA813141EA92414E
:1014E0004FEA823242EA90424FEA80304FEA0C766D
:1014F00044F1000448EA03434EEA0B484FF0000E63
:10150000B2EB080C71EB030724BF624639464EEB81
:101510000E0E4FF0000B0018524149414BEB0B0BE4
:10152000B2EB080C71EB03077BF1000B24BF6246A2
:1015300039464EEB0E0E4FF0000B00185241494158
:101540004BEB0B0BB2EB080C71EB03077BF1000BC1
:1015500024BF624639464EEB0E0E51EA020718BF11
:1015600046F0010616EB0E7655F1000254F100012B
:1015700003D5BDE88901BDE80088BDE88901BDE863
:101580000048B619524141EB0101A3F10103704734
:1015900080807F7E7D7C7B7A7978777676757473B0
:1015A000727171706F6E6E6D6C6C6B6A6A6968686F
:1015B000676666656464636362616160605F5F5E05
:1015C0005E5D5D5C5C5B5B5A5A595958585757567B
:1015D00056555555545453535252525151505050E0
:1015E0004F4F4F4E4E4D4D4D4C4C4C4B4B4B4A4A32
:1015F0004A49494948484847474747464646454576
:1016000045444444444343434342424242414141AE
:10161000002B9C4630D477002BD01CB54FEA3707FF
:1016200003B44FF010004FF01001BAF1000F06D0D4
:10163000BCF1000FDCBF40F0080040F008014FF0A3
:1016400000000FBCBDE810400BF1010BBBF1010F16
:1016500008BF5FEA170722BF12F1010211F1010171
:101660004FF0004143F1000300F0004043EA000066
:101670007047F9D35708D0E746EA064613F1400F02
:101680004FEA16461FDD13F1200FDFBF16430A464F
:10169000002120335B42BED0C3F1200746EA064654
:1016A00002FA07F74FEA164646EA0706C3F1200793
:1016B00022FA03F201FA07F721FA03F14FF00003CF
:1016C00042EA0702A7E746EA020646EA06464FEA6A
:1016D000164646EA0106BCBF46EA0646360C4FF0FF
:1016E00000034FF000024FF0000194E72DE9804C19
:1016F0009A46934670B491E8380007C831EA400C26
:1017000048BF34EA430C03D5FFF7E6FDFFF780FF3F
:10171000F0BCBDE8008C2DE9804C9A46934670B42D
:1017200091E8380007C810F0804F08BF13F0804FD1
:1017300003D100F005F8FFF76BFFF0BCBDE8008CAB
:1017400020F07F4780EA030023F07F4C07EB0C0377
:10175000A3F57C5300F00040A3F1FE0392F0000FCC
:1017600000F0B38095F0000F00F077802DE901497B
:101770004FEA11404FEA144621EA004800FB06FCFC
:1017800024EA064708FB06F607FB08F800FB07F704
:1017900018EB06484CEB164C4FEA124B18EB074877
:1017A0004FEA15464CEB174022EA0B4E0BFB06FCAA
:1017B00025EA06470EFB06F607FB0EFE0BFB07F7B6
:1017C0001EEB064E4CEB164C4FF000061EEB074E80
:1017D0004CEB174B18EB0B0840F1000018EB0E0B0D
:1017E00058EB000840F100008F1A4FF000013CBF99
:1017F000C943661B14BFB5EB040C00213CBFC943B1
:10180000F61B4FEA17444EEA8E0E27EA04454FEACC
:101810001C4704FB07622CEA074C05FB07F70CFB8F
:1018200005F604FB0CFC16EB074642EB174216EBE1
:101830000C4642EB1C421BEB060658EB02024141F0
:1018400046EA9E0601D5BDE80189B619524141EB31
:101850000101A3F10103BDE801894FEA14454FEAF4
:10186000114724EA054621EA074C05FB07F406FB6D
:1018700007F70CFB06F105FB0CFC11EB074144EBF1
:1018800017444FEA124711EB0C4144EB1C4422EA87
:10189000074C05FB07F206FB07F70CFB06F605FBFA
:1018A0000CFC16EB074642EB174216EB0C4642EBDC
:1018B0001C456A1854F1000148BF7047B6195241DF
:1018C00041EB0101A3F10103704795F0000F37D000
:1018D0004FEA11424FEA144721EA024624EA074C34
:1018E00002FB07F106FB07F70CFB06F402FB0CFCFE
:1018F00014EB074441EB17414FEA154714EB0C4436
:1019000041EB1C4125EA074C02FB07F506FB07F7F4
:101910000CFB06F602FB0CFC16EB074645EB1745E5
:1019200016EB0C4645EB1C42121951F1000148BF61
:101930007047B619524141EB0101A3F10103704711
:101940004FEA14454FEA114724EA054621EA074CBD
:1019500005FB07F106FB07F70CFB06F24FF000064C
:1019600005FB0CFC12EB074241EB174112EB0C425A
:1019700051EB1C4148BF7047921841EB0101A3F1A4
:101980000103704740F23D0CC2F2004C604740F248
:10199000651CC2F2004C604740F2CD0CC2F2004C14
:1019A000604700BFFEE7000010B501F0F3FE01F054
:1019B000A3FE0348006840F004000149086010BD20
:1019C0009CEF00E07047000010B504460CB9012000
:1019D00010BD94F83500022803D0802060650120F6
:1019E000F6E734492068884205D3334920688842A5
:1019F00001D8012000E00020C0B1042084F83500A7
:101A00002C49206888420AD32B492068884206D88E
:101A10002068006820F001002168086048E0206824
:101A2000006820F001002168086041E0206800683B
:101A300020F00E00216808601E49206888420AD301
:101A40001D492068884206D82068006820F00100FF
:101A50002168086005E02068006820F00100216826
:101A60000860206E006820F48070216E086094F891
:101A70005C100120884011490860D4E919104860C1
:101A8000E06E40B1E06E006820F48070E16E0860A6
:101A9000D4E91C10486000BF002084F8340000BF67
:101AA000012084F83500206D10B12046216D884753
:101AB00000208DE710000240B80402400454025890
:101AC0000348006840F001000149086070470000C9
:101AD00020040058F8B502460B46002100260024D9
:101AE0000020824D00BFFCE0012707FA01F61F68C5
:101AF00007EA0604B4427CD15F68022F02D05F6817
:101B0000122F1AD14FEAD10C02F1200757F82C00FE
:101B10004F074FEAD76C0F2707FA0CF7B8434FEA85
:101B2000417C4FEADC6C1F6907FA0CF738434FEA37
:101B3000D10C02F1200747F82C0010684FEA410C45
:101B4000032707FA0CF7B8431F7907F003074FEA9A
:101B5000410C07FA0CF7384310605F68012F08D07A
:101B60005F68022F05D05F68112F02D05F68122FC7
:101B700017D190684FEA410C032707FA0CF7B843D6
:101B80004FEA410CDF6807FA0CF738439060506861
:101B900001278F40B8431F79C7F300178F403843A0
:101BA0005060D0684FEA410C032707FA0CF7B8439E
:101BB0004FEA410C9F6807FA0CF73843D0605F6822
:101BC00007F08057B7F1805F95D100BF484F3F685D
:101BD00047F00207DFF818C1CCF8007067463F688D
:101BE00007F00207009700BF00BF424F4FEA910C79
:101BF00000E075E057F82C008F074FEA177C0F279D
:101C000007FA0CF7B8433C4FBA4201D100272DE048
:101C10003A4FBA4201D1012728E0394FBA4201D1E7
:101C2000022723E0374FBA4201D103271EE0364F87
:101C3000BA4201D1042719E0344FBA4201D1052735
:101C400014E0334FBA4201D106270FE0314FBA42B8
:101C500001D107270AE0304FBA4201D1082705E039
:101C60002E4FBA4201D1092700E00A274FEA817CB2
:101C70004FEA1C7C07FA0CF738431E4F4FEA910CD1
:101C800047F82C002868A0435F6807F48037B7F551
:101C9000803F00D1204328606868A0435F6807F454
:101CA0000037B7F5003F00D1204368604FF0B047E0
:101CB0003868A0435F6807F48017B7F5801F00D12C
:101CC00020434FF0B04738607868A0435F6807F45E
:101CD0000017B7F5001F00D120434FF0B0477860E0
:101CE000491C1029FFF400AFF8BD00008000005827
:101CF000F444025808040058000002580004025836
:101D000000080258000C0258001002580014025833
:101D100000180258001C02580020025800240258E3
:101D20000AB1018300E04183704700000148006868
:101D300070470000B406002403480068034909788E
:101D40000844014908607047B4060024BC0600241A
:101D500010B5032000F07EF80F2000F007F808B15E
:101D6000012010BD00F028F80020FAE770B5044605
:101D70000E4800784FF47A71B1FBF0F00C49096815
:101D8000B1FBF0F5284601F0DFF808B1012070BD85
:101D9000102C07D200222146501E00F01EF80548E4
:101DA000046001E00120F2E70020F0E7BC06002417
:101DB00090060024B8060024704701460846002813
:101DC00009DB00F01F0301229A4043099B0003F145
:101DD000E023C3F8002100BF70472DE9F05F804683
:101DE0000D46164602F02EFD074639462A46334672
:101DF00001F00700C0F1070ABAF1040F02D94FF051
:101E0000040A01E0C0F1070AD14600F1040ABAF160
:101E1000070F02D24FF0000A01E0A0F1030AD446F6
:101E20004FF0010A0AFA09FAAAF1010A0AEA020ABB
:101E30000AFA0CFA4FF0010B0BFA0CFBABF1010B99
:101E40000BEA030B4AEA0B042146404602F002FD6E
:101E5000BDE8F09F00BF00F00702064B19684FF67F
:101E6000FF031940044B0B4343EA0221014B196065
:101E700000BF70470CED00E00000FA0510B500F05F
:101E8000CBFB0949096801F470614FF4807292FA42
:101E9000A2F2B2FA82F2D140044A515CC84004492D
:101EA00008600846006810BD184402580E4A000831
:101EB0009006002410B500F067FB0749096801F09F
:101EC0007001102292FAA2F2B2FA82F2D140034AD1
:101ED000515CC84010BD0000204402580E4A000862
:101EE00070B5014600220120002300249FED811AD5
:101EF000B0EE410A9FED7F1AF0EE410A7E4D2D684B
:101F000005F003027C4D2D68C5F305307A4D2D1D7B
:101F10002D6805F01003784D14352D68C5F3CC05F8
:101F200015FB03F501EE105AB8EE411AB0EE410A66
:101F300022B1012A4DD0022A7DD169E06E4D283DA3
:101F40002D68C5F340152DB36B4D283D2D68C5F3A5
:101F5000C1066A4D25FA06F4B4FBF0F501EE105AFD
:101F6000F8EE411A9FED661A80EE012A624D103597
:101F70002D68C5F3080501EE105AB8EE411A32EE8D
:101F8000011AB7EE002A31EE021A21EE811AF0EEA4
:101F9000410A1DE0594DB5FBF0F501EE105AF8EE7F
:101FA000411A9FED571A80EE012A534D10352D68C6
:101FB000C5F3080501EE105AB8EE411A32EE011AC7
:101FC000B7EE002A31EE021A21EE811AF0EE410A34
:101FD0005EE04C4DB5FBF0F501EE105AB8EE412A2B
:101FE0009FED471AC0EE011A434D10352D68C5F319
:101FF000080501EE105AB8EE411A31EE811AF7EEDB
:10200000001A31EE211A22EE011AF0EE410A3FE0E9
:102010003D4DB5FBF0F501EE105AF8EE411A9FED7B
:10202000381A80EE012A344D10352D68C5F30805A5
:1020300001EE105A00E00CE0B8EE411A32EE011A3F
:10204000B7EE002A31EE021A21EE811AF0EE410AB3
:102050001EE02C4DB5FBF0F501EE105AB8EE412A0A
:102060009FED271AC0EE011A234D10352D68C5F3D8
:10207000080501EE105AB8EE411A31EE811AF7EE5A
:10208000001A31EE211A22EE011AF0EE410A00BFC9
:1020900000BF194D10352D68C5F346256D1C01EEA6
:1020A000105AB8EE411AC0EE811ABCEEE11A81ED69
:1020B000001A114D10352D68C5F306456D1C01EE53
:1020C000105AB8EE411AC0EE811ABCEEE11A81ED49
:1020D000011A094D10352D68C5F306656D1C01EE1A
:1020E000105AB8EE411AC0EE811ABCEEE11A81ED29
:1020F000021A70BD00000000284402580090D0036E
:102100000000004600093D0040787D0170B50146A1
:1021100000220120002300249FED811AB0EE410A25
:102120009FED7F1AF0EE410A7E4D2D6805F0030207
:102130007C4D2D68C5F305507A4D2D1D2D6805F495
:102140008073784D1C352D68C5F3CC0515FB03F560
:1021500001EE105AB8EE411AB0EE410A22B1012A3E
:102160004DD0022A7DD169E06E4D283D2D68C5F322
:1021700040152DB36B4D283D2D68C5F3C1066A4D42
:1021800025FA06F4B4FBF0F501EE105AF8EE411A08
:102190009FED661A80EE012A624D18352D68C5F351
:1021A000080501EE105AB8EE411A32EE011AB7EEE8
:1021B000002A31EE021A21EE811AF0EE410A1DE0EA
:1021C000594DB5FBF0F501EE105AF8EE411A9FEDAE
:1021D000571A80EE012A534D18352D68C5F30805AE
:1021E00001EE105AB8EE411A32EE011AB7EE002A8B
:1021F00031EE021A21EE811AF0EE410A5EE04C4DFA
:10220000B5FBF0F501EE105AB8EE412A9FED471AE2
:10221000C0EE011A434D18352D68C5F3080501EECF
:10222000105AB8EE411A31EE811AF7EE001A31EE6B
:10223000211A22EE011AF0EE410A3FE03D4DB5FBB6
:10224000F0F501EE105AF8EE411A9FED381A80EEC3
:10225000012A344D18352D68C5F3080501EE105AD2
:1022600000E00CE0B8EE411A32EE011AB7EE002A97
:1022700031EE021A21EE811AF0EE410A1EE02C4DD9
:10228000B5FBF0F501EE105AB8EE412A9FED271A82
:10229000C0EE011A234D18352D68C5F3080501EE6F
:1022A000105AB8EE411A31EE811AF7EE001A31EEEB
:1022B000211A22EE011AF0EE410A00BF00BF194DAB
:1022C00018352D68C5F346256D1C01EE105AB8EE81
:1022D000411AC0EE811ABCEEE11A81ED001A114DCF
:1022E00018352D68C5F306456D1C01EE105AB8EE81
:1022F000411AC0EE811ABCEEE11A81ED011A094DB6
:1023000018352D68C5F306656D1C01EE105AB8EE40
:10231000411AC0EE811ABCEEE11A81ED021A70BDBD
:1023200000000000284402580090D003000000463E
:1023300000093D0040787D0170B504460D46002639
:102340008D48006800F00700A8420ED28A48006855
:1023500020F007002843884908600846006800F01C
:102360000700A84201D0012070BD207800F00200D3
:10237000022807D18148006820F00F00E168084377
:102380007E490860207800F00100002851D07B4889
:10239000006820F47060A1680843784908606068AC
:1023A000022807D1754818380068C0F34040F8B9D2
:1023B0000120D9E76068032807D170481838006801
:1023C000C0F34060A0B90120CEE76068012807D1C2
:1023D0006A4818380068C0F3002048B90120C3E7F4
:1023E000664818380068C0F3800008B90120BBE7D0
:1023F00062480838006820F00700616808435F49B8
:1024000008390860FFF792FC06466068022811D17F
:1024100008E0FFF78BFC801B41F28831884201D92C
:102420000320A1E755480838006800F0380010285C
:10243000EFD13AE06068032811D108E0FFF776FC9D
:10244000801B41F28831884201D903208CE74B4838
:102450000838006800F038001828EFD125E06068DF
:10246000012811D108E0FFF761FC801B41F288319F
:10247000884201D9032077E740480838006800F017
:1024800038000828EFD110E008E0FFF74FFC801B70
:1024900041F28831884201D9032065E7374808387E
:1024A000006800F038000028EFD13348006800F0E1
:1024B0000700A8420ED93048006820F007002843E2
:1024C0002D4908600846006800F00700A84201D0C6
:1024D000012049E7207800F00400042807D12748AC
:1024E000006820F0700021690843244908602078C2
:1024F00000F00800082809D12048001D006820F0DD
:102500007000616908431D49091D0860207800F0CA
:102510001000102809D11948001D006820F4E0605F
:10252000A16908431549091D0860207800F02000C2
:10253000202809D111480830006820F07000E169B6
:1025400008430E490831086000F066F80B49096835
:1025500001F470614FF4807292FAA2F2B2FA82F240
:10256000D140074A515CC840064908600F20FFF778
:10257000FDFB0020F8E6000000200052184402583D
:102580000E4A00089006002410B5FFF777FC0949B1
:10259000096801F00F01012292FAA2F2B2FA82F266
:1025A000D140054A515CC8400449086008460068AB
:1025B00010BD0000184402580E4A0008940600247A
:1025C00010B5FFF7E1FF0749096801F0700110221B
:1025D00092FAA2F2B2FA82F2D140034A515CC840A8
:1025E00010BD00001C4402580E4A000810B5FFF749
:1025F000CBFF0749096801F4E0614FF4807292FA59
:10260000A2F2B2FA82F2D140024A515CC84010BD37
:102610001C4402580E4A000870B5012500EE905A7D
:102620000022012100230024DFED861AB0EE610AAA
:10263000DFED841AB0EE611A0020834D2D6805F09D
:10264000380535B1082D15D0102D15D0182D7CD199
:1026500014E07D4D103D2D68C5F3401545B17A4D10
:10266000103D2D68C5F3C106784D25FA06F000E04F
:102670007648E5E07648E3E07648E1E0724D1835CB
:102680002D6805F00302704D18352D68C5F305114E
:102690006D4D1C352D6805F001036B4D24352D68FB
:1026A000C5F3CC0515FB03F501EE905AF8EE611A5F
:1026B000B0EE610A22B1012A4FD0022A7DD16BE02F
:1026C000614D103D2D68C5F340152DB35E4D103D95
:1026D0002D68C5F3C1065D4D25FA06F4B4FBF1F58E
:1026E00001EE905AB8EE612ADFED5B1AC0EE212AA6
:1026F000554D20352D68C5F3080501EE905AF8EECA
:10270000611A72EEA11AF7EE002A71EEA21A62EEB9
:10271000211AB0EE611A1FE04C4DB5FBF1F501EE48
:10272000905AB8EE612ADFED4C1AC0EE212A464DD0
:1027300020352D68C5F3080501EE905AF8EE611AB0
:1027400072EEA11AF7EE002A00E077E071EEA21A0D
:1027500062EE211AB0EE611A5EE03D4DB5FBF1F577
:1027600001EE905AB8EE612ADFED3B1AC0EE212A45
:10277000354D20352D68C5F3080501EE905AF8EE69
:10278000611A72EEA11AF7EE002A71EEA21A62EE39
:10279000211AB0EE611A3FE02E4DB5FBF1F501EEC6
:1027A000905AB8EE612ADFED2C1AC0EE212A264D90
:1027B00020352D68C5F3080500E00EE001EE905AC3
:1027C000F8EE611A72EEA11AF7EE002A71EEA21A63
:1027D00062EE211AB0EE611A1EE01D4DB5FBF1F557
:1027E00001EE905AF8EE612ADFED1B1A80EE212AE5
:1027F000154D20352D68C5F3080501EE905AF8EE09
:10280000611A72EE211AB7EE002A71EE821A62EE98
:10281000A11AB0EE611A00BF00BF0B4D20352D6824
:10282000C5F346256D1C00EE905AF8EE601A81EE55
:10283000212AFCEEC21A11EE900A01E0044800BF02
:1028400000BF70BD00000000104402580090D0038B
:1028500000093D0040787D010000004670B5044647
:102860000025207800F00100002872D0F9480068A7
:1028700000F0380010280CD0F648006800F038004E
:10288000182812D1F3481830006800F0030002281D
:102890000BD1F04810380068C0F3404000286DD0DC
:1028A000606800286AD1012070BD00BF6068B0F583
:1028B000803F08D1E7481038006840F48030E5498F
:1028C000103908602EE0606868B9E2481038006886
:1028D00020F48030DF49103908600846006820F491
:1028E000802008601EE06068B0F5A02F0DD1D948A7
:1028F0001038006840F48020D64910390860084636
:10290000006840F4803008600CE0D248103800685D
:1029100020F48030CF49103908600846006820F460
:102920008020086000BF6068A0B1FFF7FFF905468E
:1029300008E0FFF7FBF9401B41F28831884201D9DA
:102940000320B1E7C34810380068C0F340400028B6
:10295000EFD013E0FFF7EAF9054608E0FFF7E6F9E4
:10296000401B41F28831884201D903209CE7B948D5
:1029700010380068C0F340400028EFD1207800F004
:102980000200022847D1B348006800F0380058B16F
:10299000B048006800F0380018283ED1AD48183023
:1029A000006800F00300B8BBAA4810380068C0F304
:1029B000800018B1E06808B9012075E7A548103813
:1029C000006820F01900E1680843A2491039086046
:1029D000FFF7ACF9054606E0FFF7A8F9401B02280F
:1029E00001D9032060E79B4810380068C0F38000DD
:1029F0000028F1D097480C38006820F47C304FF460
:102A00007C3292FAA2F2B2FA82F221699140084332
:102A100090490C3908604AE0FFE7E06868B38D48E8
:102A20001038006820F01900E1680843894910391E
:102A30000860FFF77BF9054606E0FFF777F9401BD2
:102A4000022801D903202FE7824810380068C0F31C
:102A500080000028F1D07F480C38006820F47C30DA
:102A60004FF47C3292FAA2F2B2FA82F221699140DA
:102A7000084378490C39086019E076481038006836
:102A800020F00100734910390860FFF74FF905463F
:102A900006E0FFF74BF9401B022801D9032003E7AA
:102AA0006C4810380068C0F380000028F1D120780D
:102AB00000F01000102877D16648006800F0380058
:102AC00008280CD06348006800F03800182823D18B
:102AD00060481830006800F0030001281CD15D48F0
:102AE00010380068C0F3002020B1E069802801D0D0
:102AF0000120D9E657480C38006820F0F8404FF024
:102B0000F84292FAA2F2B2FA82F2216A91400843A4
:102B100050490C39086047E0E06958B34D48103817
:102B2000006840F080004B4910390860FFF7FEF85C
:102B3000054606E0FFF7FAF8401B022801D90320FA
:102B4000B2E6444810380068C0F300200028F1D0F5
:102B500040480C38006820F0F8404FF0F84292FAF4
:102B6000A2F2B2FA82F2216A9140084339490C3943
:102B7000086019E037481038006820F080003549B7
:102B800010390860FFF7D2F8054606E0FFF7CEF8E7
:102B9000401B022801D9032086E62E481038006821
:102BA000C0F300200028F1D1207800F008000828A8
:102BB00036D16069D0B127486430006840F0010028
:102BC000244964310860FFF7B1F8054606E0FFF7D5
:102BD000ADF8401B022801D9032065E61D4864308A
:102BE0000068C0F340000028F1D019E019486430B3
:102BF000006820F00100174964310860FFF796F87B
:102C0000054606E0FFF792F8401B022801D9032091
:102C10004AE6104864300068C0F340000028F1D153
:102C2000207800F02000202834D1A069D8B10948CC
:102C30001038006840F48050064910390860FFF7EA
:102C400075F8054608E0FFF771F8401B022803D924
:102C5000032029E610440258AF480068C0F3403012
:102C60000028F0D016E0AC48006820F48050AA4953
:102C70000860FFF75BF8054606E0FFF757F8401BD2
:102C8000022801D903200FE6A3480068C0F34030B2
:102C90000028F2D1207800F0040004287DD19F485C
:102CA000006840F480709D490860FFF73FF80546D2
:102CB00006E0FFF73BF8401B642801D90320F3E549
:102CC0009648006800F480700028F2D000BFA06829
:102CD000012808D190487030006840F001008E490A
:102CE000703108602DE0A06868B98B4870300068CA
:102CF00020F001008849703108600846006820F023
:102D0000040008601DE0A06805280DD182487030DD
:102D1000006840F00400804970310860084600688F
:102D200040F0010008600CE07B487030006820F043
:102D300001007949703108600846006820F00400FD
:102D4000086000BFA068A0B1FEF7F0FF054608E0EC
:102D5000FEF7ECFF401B41F28831884201D9032085
:102D6000A2E56D4870300068C0F340000028EFD045
:102D700013E0FEF7DBFF054608E0FEF7D7FF401B38
:102D800041F28831884201D903208DE562487030D4
:102D90000068C0F340000028EFD1606A00287CD0B2
:102DA0005D481030006800F03800182876D0606A5E
:102DB000022874D15848006820F080705649086095
:102DC000FEF7B4FF054606E0FEF7B0FF401B022801
:102DD00001D9032068E550480068C0F3406000282E
:102DE000F2D100BFD4E90A1041EA00104A49283163
:102DF000096840F2F332914308434749283108609B
:102E0000208E401EC0F30800616B491E4FF47E42C5
:102E100002EA41210843218F491ED20102EA014101
:102E200008433C21095D491E120202EA0161084380
:102E300039493031086000BF081D00684FF6F8714D
:102E400088434FF6F87292FAA2F2B2FA82F2A16CBB
:102E5000914008433049343108602F482C300068D5
:102E600020F00C00216C08432B492C3108600846E7
:102E7000006820F00200616C084327492C3108608B
:102E80000846006840F4803008600846006840F456
:102E9000003008600846006802E03BE038E01FE0D0
:102EA00040F4802008600846006840F00100086097
:102EB0001948006840F0807017490860FEF736FF37
:102EC000054606E0FEF732FF401B022801D9032029
:102ED000EAE411480068C0F340600028F2D019E02D
:102EE0000D48006820F080700B490860FEF71EFF57
:102EF000054606E0FEF71AFF401B022801D9032011
:102F0000D2E405480068C0F340600028F2D101E037
:102F10000120C9E40020C7E40044025800480258D8
:102F2000042808D14FF0E021096941F004014FF075
:102F3000E022116107E04FF0E021096921F004016E
:102F40004FF0E0221161704770B504462546681EB7
:102F5000B0F1807F01D301200FE0681E4FF0E02127
:102F600048610F214FF0FF3001F074FC00204FF05A
:102F7000E021886107200861002070BD704770471C
:102F800010B504460CB9012010BD94F83D0028B9D5
:102F9000002084F83C00204600F00CF8022084F861
:102FA0003D00211D206800F03BFD012084F83D001C
:102FB0000020E9E738B504461A492068884215D14F
:102FC00000BF1948006840F0020017490860084631
:102FD000006800F00200009000BF00BF0322012142
:102FE0001D20FEF7FAFE1D20FEF7E7FE0F492068C0
:102FF000884215D100BF0C48006840F004000A491F
:1030000008600846006800F00400009000BF00BFA0
:10301000032202211D20FEF7E0FE1E20FEF7CDFE5A
:1030200038BD000000040040E84402580008004099
:1030300001460868C06840F001000A68D06008686E
:10304000008840F001000A68108000207047704737
:1030500010B5044620680069C0F34000D8B120686C
:10306000C068C0F34000B0B16FF002002168086191
:10307000012020772068806900F0030018B1204605
:10308000FFF7E5FF05E0204600F0BEF8204600F01F
:10309000BCF80020207720680069C0F38000D8B118
:1030A0002068C068C0F38000B0B16FF004002168F0
:1030B0000861022020772068806900F4407018B110
:1030C0002046FFF7C4FF05E0204600F09DF82046AB
:1030D00000F09BF80020207720680069C0F3C00052
:1030E000D8B12068C068C0F3C000B0B16FF008006C
:1030F00021680861042020772068C06900F003007F
:1031000018B12046FFF7A3FF05E0204600F07CF849
:10311000204600F07AF80020207720680069C0F38C
:103120000010D8B12068C068C0F30010B0B16FF0D3
:10313000100021680861082020772068C06900F429
:10314000407018B12046FFF782FF05E0204600F0EE
:103150005BF8204600F059F80020207720680069CD
:1031600000F0010058B12068C06800F0010030B1E3
:103170006FF0010021680861204600F047F82068E0
:103180000069C0F3C01058B12068C068C0F3C01017
:1031900030B16FF08000216808612046FFF7EEFE35
:1031A00020680069C0F3002058B12068C068C0F3EF
:1031B000C01030B16FF08000216808612046FFF731
:1031C000DDFE20680069C0F3801058B12068C06837
:1031D000C0F3801030B16FF04000216808612046D4
:1031E00000F02EF820680069C0F3401058B1206844
:1031F000C068C0F3401030B16FF020002168086152
:103200002046FFF7BCFE10BD704770470849884252
:1032100004D108490968491C064A116006498842D8
:1032200004D106490968491C044A1160704700002E
:1032300010480024C006002450480024C40600247E
:1032400070477047704701460022002391F87920AB
:1032500091F87A3042EA0300704700002DE9F0410E
:1032600004462068C569206807682068866805F0FC
:103270000F08B8F1000F0DD105F0200050B107F094
:10328000200010B906F0805020B1204600F009FD62
:10329000BDE8F081B8F1000F72D05D48304018B938
:1032A00007F4907000287AD005F0010048B107F4C7
:1032B000807030B1012021680862E06F40F00100A9
:1032C000E06705F0020048B106F0010030B10220CD
:1032D00021680862E06F40F00400E06705F0040038
:1032E00048B106F0010030B1042021680862E06FA7
:1032F00040F00200E06705F0080078B107F0200018
:1033000028B906F0805010B906F0010030B108204D
:1033100021680862E06F40F00800E067E06F70B37A
:1033200005F0200040B107F0200010B906F08050F1
:1033300010B1204600F0B5FCE06F00F0080020B9A5
:103340002068806800F0400018B3204600F089FC37
:103350002068806800F04000B8B12068806820F0E4
:10336000400021688860606F58B12A48616F086525
:10337000606FFEF729FB10B1606F016D88470DE0AB
:103380000DE02046FFF75EFF08E02046FFF75AFFFA
:1033900004E02046FFF756FF0020E06778E705F4D9
:1033A000801078B106F4800060B14FF4801021687D
:1033B0000862202084F8790084F87A002046FFF71C
:1033C00040FF65E705F0800048B107F0800010B9C4
:1033D00006F4000018B1204601F07AF958E705F02C
:1033E000400030B107F0400018B1204600F049FC21
:1033F0004EE705F4000040B107F0804028B1206896
:10340000006820F080402168086000BF40E70000AD
:10341000010000104B3C000810B504460CB9012017
:1034200010BDA06900B100E000BF94F8790028B990
:10343000002084F87800204600F02AF8242084F840
:1034400079002068006820F00100216808602046AB
:1034500000F06CFC012800D1E2E7606B10B120465F
:1034600000F044FB2068406820F4904021684860E8
:103470002068806820F02A00216888602068006841
:1034800040F0010021680860204600F0A4FBC7E777
:1034900010B586B004462149206888423BD100BF60
:1034A0001F48006840F001001D4908600846006898
:1034B00000F00100009000BF00BF00BF18481030AE
:1034C000006840F010001649103108600846006896
:1034D00000F01000009000BF00BF4FF4007001909A
:1034E0000220029001200390022004900720059002
:1034F00001A90C48FEF7EEFA4FF48060019001A993
:103500000848FEF7E7FA2520FEF757FC032211468C
:103510002520FEF762FC06B010BD0000001001403F
:10352000E04402580000025810B5034693F87A00B0
:10353000202867D101B10AB9012010BD00BF93F85E
:103540007800012801D10220F7E7012083F87800F4
:1035500000BF5966A3F86820A3F86A2000BF9868E6
:10356000B0F5805F0AD1186920B940F2FF10A3F8C6
:103570006C001CE0FF20A3F86C0018E0986848B9C4
:10358000186918B9FF20A3F86C0010E07F20A3F899
:103590006C000CE09868B0F1805F08D1186918B928
:1035A0007F20A3F86C0002E03F20A3F86C0000BF6E
:1035B0000020D867222083F87A0000BF002083F81B
:1035C000780000BF1868806840F001001C68A060A7
:1035D0001868006800F0005060B11868006840F496
:1035E00080701C6820601868806840F080501C68FB
:1035F000A06005E01868006840F490701C682060C6
:1036000000209AE7022098E71D4A0168914236D1CE
:103610001C49098801F4004189BB1A49098801F451
:10362000804171B1184909780A2903D00021154A4F
:10363000118024E01349098841F40041114A1180A6
:103640001DE0114909780D2906D10E49098841F478
:1036500080410C4A118012E00B490978094A12880E
:10366000C2F30D02094B995406490988491C054AC1
:10367000118011460988C72901DD0021118070479A
:1036800000100140A0060024A2060024C806002461
:10369000704700BFFEE7000000B587B000BF1248CA
:1036A000006840F00200104908600846006800F019
:1036B0000200019000BF00BF032002900120039090
:1036C00004900320059002A90848FEF703FA01229E
:1036D00011460648FEF724FB012202210348FEF7AB
:1036E0001FFB07B000BD0000E04402580004025870
:1036F00000BFFEE77047704710B50023234C2360DE
:1037000000BF00BF00BFBFF34F8F00BF00BF00BFAF
:10371000231F1868C0F34E3100BFC0F3C90200BFB9
:1037200043F6E07303EA41134FF0404404EA827425
:103730002343174C236000BF00BF131EA2F10102F8
:10374000EED10B1EA1F10101E7D100BF00BF00BF08
:10375000BFF34F8F00BF00BF00BF0C4B703B1B6817
:1037600043F48033094C703C236000BF00BF00BFAE
:10377000BFF34F8F00BF00BF00BF00BF00BF00BF3F
:10378000BFF36F8F00BF00BF00BF10BD84ED00E02E
:1037900060EF00E000BF00BF00BFBFF34F8F00BF6E
:1037A00000BF00BF00BF00BF00BFBFF36F8F00BFEF
:1037B00000BF00BF00201449086000BF00BF00BF69
:1037C000BFF34F8F00BF00BF00BF00BF00BF00BFEF
:1037D000BFF36F8F00BF00BF00BF0C48006840F40C
:1037E00000300A49086000BF00BF00BFBFF34F8F21
:1037F00000BF00BF00BF00BF00BF00BFBFF36F8F9F
:1038000000BF00BF00BF704750EF00E014ED00E0C4
:10381000704700002DE9F0419CB080460C461546EB
:103820001E4600273748006820F00400354908602C
:1038300000BF0020009033480C30006840F4404046
:1038400030490C3108600846006800F440400090A0
:1038500000BF00BF00BF2B480C30006800F40050D0
:10386000B0F5005FF7D10120019000040290002024
:103870000490089002200A9002210B91CDF8348028
:103880000C940E950F96002112910821119101A818
:10389000FEF7E4FF07460FB100BFFEE73F2014909C
:1038A00003201590002016900820179040201990B2
:1038B00000011A904020189050201B90022114A85B
:1038C000FEF73AFD07460FB100BFFEE70E4800685D
:1038D00040F080000C49086000BF0B48F4300068DD
:1038E00040F002000849F43108600846006800F022
:1038F0000200009000BF00BFFEF7E2F81CB0BDE878
:10390000F08100000C4802580044025810B5FEF740
:1039100013FA10BD2048006840F470001E4908608A
:103920001E48006840F001001C49086000201B4947
:1039300010310860194800681949084017490860A3
:103940000020164918310860091D0860091D08602B
:10395000124928310860091D0860091D0860091D09
:103960000860091D0860091D0860091D0860091D1F
:1039700008600A48006820F4802008490860002098
:10398000064960310860012006490860C006024906
:10399000803908607047000088ED00E0004402585C
:1039A0007FEDF6EA0881005110B50248FFF750FBA1
:1039B00010BD00001048002470B505460C460748AD
:1039C000074908600846446000218160C5600161C4
:1039D000FFF7D6FA0248FFF72BFB70BD000400404A
:1039E0001048002410B50248FFF732FB10BD00005C
:1039F0005048002470B505460C4607480749086042
:103A00000846446000218160C5600161FFF7B8FA93
:103A10000248FFF70DFB70BD00080040504800242D
:103A200010B500220288294B98420ED0B0F1804F89
:103A30000BD0274B984208D0264B984205D0264BF6
:103A4000984202D0254B984203D122F070024B6875
:103A50001A431E4B984217D0B0F1804F14D01C4B24
:103A6000984211D01B4B98420ED01B4B98420BD062
:103A70001A4B984208D01A4B984205D0194B9842DD
:103A800002D0194B984203D122F44072CB681A43FA
:103A900022F080034C6943EA040202808B68C3620F
:103AA0000B880385094B98420BD00C4B984208D0E9
:103AB0000B4B984205D00B4B984202D00A4B9842D0
:103AC00001D10B8A03860123436110BD0000014030
:103AD0000004004000080040000C004000040140C9
:103AE00000400140004401400048014090F834107B
:103AF00001F0010139B10168496821F40031826B9C
:103B000011430268516090F8341001F0020139B19C
:103B10000168496821F48031C26B11430268516029
:103B200090F8341001F0040139B10168496821F4BA
:103B30008021026C11430268516090F8341001F04A
:103B4000080139B10168496821F40041426C114310
:103B50000268516090F8341001F0100139B1016829
:103B6000896821F48051826C11430268916090F859
:103B7000341001F0200139B10168896821F4005145
:103B8000C26C11430268916090F8341001F040015A
:103B900099B10168496821F48011026D11430268EE
:103BA0005160016DB1F5801F07D10168496821F4AA
:103BB000C001426D11430268516090F8341001F069
:103BC000800139B10168496821F40021826D1143F7
:103BD00002685160704738B5044600250020E06750
:103BE000FEF7A4F805462068006800F008000828E1
:103BF0000CD16FF07E402B4600224FF40011009054
:103C0000204600F0A6FD08B1032038BD20680068FA
:103C100000F0040004280CD16FF07E402B460022F7
:103C20004FF480010090204600F093FD08B103207E
:103C3000EBE7202084F8790084F87A0000BF0020A8
:103C400084F8780000BF00BFDFE770B50546AC6BB5
:103C50000020A4F86A00A4F862002046FFF7F2FAF8
:103C600070BD0168096821F49071026811600168F3
:103C7000896821F0010102689160202180F87A10A2
:103C8000704710B504462068006820F040002168A5
:103C90000860202084F879002046FFF7F9FC002016
:103CA00010BD2DE9F0410446B4F86C7094F87A0028
:103CB000222833D12068858CA068B0F5805F09D1B7
:103CC000206938B9666E05EA07003080606E801C96
:103CD000606605E0F8B22840626E511C61661070A3
:103CE000B4F86A00401E80B2A4F86A00A0B9206847
:103CF000006820F49070216808602068806820F0D7
:103D0000010021688860202084F87A002046FFF7AF
:103D10007BFC0020BDE8F0810020FBE72068008BE1
:103D200040F00800216808830220F3E72DE9F04FF6
:103D300089B0044600254FF08008A946AA46002015
:103D40000890FA492068884201D1012000E0002053
:103D500000B100E000BFA06AB0F1005F00D100BF79
:103D60002169A068084361690843E16940EA0105E7
:103D7000A06A054320680068ED490840284321688F
:103D800008602068406820F44050E16808432168DA
:103D90004860A569E5492068884201D1012000E01A
:103DA000002008B9206A0543A06AB0F1005F03D182
:103DB000D4E90B010843054320688068DD490840C9
:103DC0002843216888602068C06A20F00F00616A7B
:103DD00008432168C86200BFD7492068884224D1BF
:103DE000D648006800F03800182814D005DC48B127
:103DF00008280AD0102817D10AE020280ED0282839
:103E000012D10EE04FF001080EE04FF004080BE075
:103E10004FF0400808E04FF0080805E04FF01008A8
:103E200002E04FF0200800BF17E1C5492068884232
:103E30001DD1C248006800F00700062816D2DFE84E
:103E400000F00306090C0F124FF000080EE04FF0CF
:103E500004080BE04FF0400808E04FF0080805E0C8
:103E60004FF0100802E04FF0200800BFF5E0B54920
:103E7000206888421DD1B148006800F0070006287C
:103E800016D2DFE800F00306090C0F124FF000080D
:103E90000EE04FF004080BE04FF0400808E04FF050
:103EA000080805E04FF0100802E04FF0200800BFBE
:103EB000D3E0A549206888421DD1A048006800F0E1
:103EC0000700062816D2DFE800F00306090C0F12DF
:103ED0004FF000080EE04FF004080BE04FF04008F0
:103EE00008E04FF0080805E04FF0100802E04FF03E
:103EF000200800BFB1E09549206888421DD18F4855
:103F0000006800F00700062816D2DFE800F003067C
:103F1000090C0F124FF000080EE04FF004080BE000
:103F20004FF0400808E04FF0080805E04FF0100897
:103F300002E04FF0200800BF8FE0854920688842EA
:103F400024D17E48006800F03800182814D005DC21
:103F500048B108280AD0102817D10AE020280ED02E
:103F6000282812D10EE04FF001080EE04FF00408AF
:103F70000BE04FF0400808E04FF0080805E04FF074
:103F8000100802E04FF0200800BF66E07149206889
:103F900088421DD16948006800F00700062816D243
:103FA000DFE800F00306090C0F124FF000080EE0E6
:103FB0004FF004080BE04FF0400808E04FF008080D
:103FC00005E04FF0100802E04FF0200800BF44E089
:103FD0006149206888421DD15848006800F00700F8
:103FE000062816D2DFE800F00306090C0F124FF086
:103FF00000080EE04FF004080BE04FF0400808E026
:104000004FF0080805E04FF0100802E04FF02008DC
:1040100000BF22E04549206888421ED14748001D64
:10402000006800F00700062816D2DFE800F003065B
:10403000090C0F124FF002080EE04FF004080BE0DD
:104040004FF0400808E04FF0080805E04FF0100876
:1040500002E04FF0200800BF00BF00BF33492068D6
:10406000884201D1012000E0002000285DD0002519
:10407000B8F1100F33D009DCB8F1020F10D0B8F14D
:10408000040F11D0B8F1080F2ED117E0B8F1200FAE
:1040900027D0B8F1400F0CD0B8F1800F24D124E024
:1040A000FDF708FF054623E005A8FDF719FF069D6B
:1040B0001EE002A8FEF72AF8039D19E01F485438B5
:1040C0000068C0F3401040B11C4854380068C0F389
:1040D000C101224820FA01F500E0204D08E0204D02
:1040E00006E04FF4004503E000BF0120089000BF48
:1040F00000BF002D0AD0606800EB4000A84203D842
:1041000060680003A84202D201200890D4E2B8F10E
:10411000100F7CD026DCB8F1020F2DD0B8F1040FBF
:1041200052D0B8F1080F73D19EE03FE1000C005867
:10413000F369FFCFFFF4FF1100100140544402580F
:104140000044004000480040004C00400050004047
:104150000014014000780040007C00400090D00333
:1041600000093D00B8F1200F7DD0B8F1400F54D0C8
:10417000B8F1800FD7D109E1FDF79CFE0027064674
:10418000FB49606A31F810C062463B46304639460A
:10419000FCF778F94FF4807600220346A3FB06076C
:1041A00001FB067103FB021361684908064671189A
:1041B0005A41CDE90012666832460023084601994B
:1041C000FCF760F90546E4E005A8FDF789FEDDF897
:1041D00018C0E749606A31F810B05A4600236046BB
:1041E0001946FCF74FF94FF4807C0022A0FB0C3BF2
:1041F00001FB0CB100FB0210616849085E1840EB3E
:104200000201D4F804C062460023304601E079E0A0
:10421000BBE0FCF737F90546BBE002A8FDF776FFE7
:10422000DDF80CC0D249606A31F810B05A4600235C
:1042300060461946FCF726F94FF4807C0022A0FB6B
:104240000C3B01FB0CB100FB0210616849085E18D1
:1042500040EB0201D4F804C0624600233046FCF76C
:1042600011F9054695E06EE0C2480068C0F34010C1
:1042700038B3C0480068C0F3C101BF4820FA01FC50
:10428000BB49606A31F810B05A46002360461946AF
:10429000FCF7F8F84FF4807C0022A0FB0C3B01FBFC
:1042A0000CB100FB0210616849085E1840EB020186
:1042B000D4F804C0624600233046FCF7E3F8054614
:1042C0001FE0AB49606A31F810C062460023AA487B
:1042D0001946FCF7D7F84FF4807C0022A0FB0C3B7A
:1042E00001FB0CB100FB0210616849085E1840EB4D
:1042F0000201D4F804C0624600233046FCF7C2F83D
:10430000054646E09A49606A31F810C062460023CB
:104310009A481946FCF7B6F84FF4807C0022A0FBBF
:104320000C3B01FB0CB100FB0210616849085E18F0
:1043300040EB0201D4F804C0624600233046FCF78B
:10434000A1F8054625E08A49606A31F810C0624646
:1043500000234FF400401946FCF794F84FF4807C9A
:104360000022A0FB0C3B01FB0CB100FB02106168BA
:1043700049085E1840EB0201D4F804C062460023ED
:104380003046FCF77FF8054603E000BF01200890A7
:1043900000BF00BFB5F5407F05D3B5F5801F02D241
:1043A0002068C56088E10120089085E1E069B0F5EA
:1043B000004F7CD1B8F1100F7AD00CDCB8F1000FAF
:1043C00013D0B8F1010F21D0B8F1040F2FD0B8F1FC
:1043D000080F6ED151E0B8F1200F6BD0B8F1400F4B
:1043E00038D0B8F1800F64D197E0FEF7E9F8604A61
:1043F000616A32F81110B0FBF1F04000616800EB27
:104400005100B0FBF1F01FFA80FA89E0FEF7EEF8F8
:10441000574A616A32F81110B0FBF1F04000616850
:1044200000EB5100B0FBF1F01FFA80FA78E005A82C
:10443000FDF756FD06994E4A606A32F81000B1FB4E
:10444000F0F04000616800EB5100B0FBF1F01FFAA2
:1044500080FA65E002A8FDF759FE0399444A606AB4
:1044600032F81000B1FBF0F04000616800EB510041
:10447000B0FBF1F01FFA80FA52E03E480068C0F34A
:104480004010C0B13B480068C0F3C1013A48C84081
:10449000374A616A32F81110B0FBF1F040006168F0
:1044A00000EB5100B0FBF1F01FFA80FA12E044E09B
:1044B00011E031E01FE02E49606A31F810002E490A
:1044C000B1FBF0F04000616800EB5100B0FBF1F08F
:1044D0001FFA80FA24E02649606A31F81000274963
:1044E000B1FBF0F04000616800EB5100B0FBF1F06F
:1044F0001FFA80FA14E01E49606A31F810004FF488
:104500000041B1FBF0F04000616800EB5100B0FBEE
:10451000F1F01FFA80FA03E000BF0120089000BF0D
:1045200000BF4FF6F0700AEA0009CAF3420049EAF8
:1045300000092068C0F80C90BEE0B8F1100F7CD0E4
:104540000CDCB8F1000F1BD0B8F1010F29D0B8F185
:10455000040F37D0B8F1080F70D159E0B8F1200F2F
:104560006DD0B8F1400F40D0B8F1800F66D19FE018
:104570001E4A0008004402580090D00300093D0084
:10458000FEF71EF84E4A616A32F81110B0FBF1F0E6
:10459000616800EB5100B0FBF1F080B22168C860A7
:1045A00089E0FEF723F8464A616A32F81110B0FB41
:1045B000F1F0616800EB5100B0FBF1F080B22168CE
:1045C000C86078E005A8FDF78BFC06993C4A606A54
:1045D00032F81000B1FBF0F0616800EB5100B0FB65
:1045E000F1F080B22168C86065E002A8FDF78EFD99
:1045F0000399334A606A32F81000B1FBF0F0616849
:1046000000EB5100B0FBF1F080B22168C86052E0CD
:104610002C480068C0F34010C0B12A480068C0F3BD
:10462000C1012948C840264A616A32F81110B0FB1E
:10463000F1F0616800EB510002E017E037E025E09F
:10464000B0FBF1F080B22168C8600EE01C49606ADE
:1046500031F810001C49B1FBF0F0616800EB51002B
:10466000B0FBF1F080B22168C86024E01449606AB0
:1046700031F810001549B1FBF0F0616800EB510012
:10468000B0FBF1F080B22168C86014E00C49606AA8
:1046900031F810004FF40041B1FBF0F0616800EB1D
:1046A0005100B0FBF1F080B22168C86003E000BFA8
:1046B0000120089000BF00BF089809B0BDE8F08F46
:1046C0001E4A0008004402580090D00300093D0033
:1046D000014691F87900212839D1B1F86200C8B9B2
:1046E0000868006800F0005030B10868806820F465
:1046F00000000B68986005E00868006820F0800002
:104700000B6818600868006840F040000B6818608B
:10471000002070478868B0F5805F0BD1086948B900
:10472000CA6D1088C0F308000B681885C86D801C1E
:10473000C86505E0CB6D581CC86518780B681885EE
:10474000B1F86200401EA1F862000020E1E70220FB
:10475000DFE72DE9F04104460D4617469846069ED0
:1047600021E0701CF8B12EB1FDF7E0FAA0EB0800D3
:10477000B04218D92068006820F4D0702168086021
:104780002068806820F0010021688860202084F87B
:10479000790084F87A0000BF002084F8780000BF18
:1047A0000320BDE8F0812068C0692840A84201D1FB
:1047B000012000E00020B842D3D00020F1E7000043
:1047C00070B500240F4D1048FEF748FD00BF03E010
:1047D000641CAC4200D904E00B48FEF734FD2028ED
:1047E000F6D100BF002403E0641CAC4200D906E00F
:1047F000012206490448FEF797FE0028F4D100BFC5
:1048000070BD0000FFFF010090070024A2060024F5
:1048100000BFFEE703B401984100009850EAC120B0
:1048200018BF04204A0D18BF40F0010040F2FF728B
:10483000B2EB515F08BF40F00200012808BF05201D
:1048400002B0704702480068C0F3022070470000C1
:104850000CED00E010B5002804DB0A07130E054A32
:10486000135406E00A07140E034A00F00F031B1F3F
:10487000D45410BD00E400E018ED00E000BF704724
:1048800010B504460420FEF74BFB0148046010BD40
:104890009806002400BF054AD26902F04002002AAF
:1048A000F9D0C2B2014B1A857047000000100140D8
:1048B000ADF54C4D00BFFDF777F8FDF749FA04233D
:1048C00002220521A020FEF7A5FF4FF4C870FFF7D4
:1048D000D7FF4FF4E13000F049F8FEF7DDFE44F673
:1048E0001F610920FFF768F863210920FFF782F8AC
:1048F0004FF44840FDF746F817A0FBF73BFE0026B3
:104900001FE0002411E018480068FBF7D7FEFBF712
:1049100029FD0546C01705EB10600012A5EB00202D
:104920004CF6180169440855641CB4F57A7FEADB3B
:1049300005AB06AA4FF47A7102F54840FDF727F857
:10494000761C41F270708642DBDB05A906A8FDF7F4
:1049500023F800BFFEE7000068656C6C6F20776F7E
:104960007264210A00000000C406002410B5044649
:1049700009480A4908600846446000218160C16016
:10498000016181610C214161FEF746FD012204496C
:104990000248FEF7C9FD10BD001001409007002439
:1049A000A206002410B500290AD00878002807D0F4
:1049B00005487844FCF7CAFB002801D0002010BD50
:1049C0000248784410BD0000620100005A01000056
:1049D0004FF04070E1EE100A7047FCF7A3B80100F9
:1049E00002000400060008000A000C00100020006D
:1049F00040008000000101000200040006000800E1
:104A00000A000C001000200040008000000100009F
:104A10000000010203040102030406070809010063
:104A200002000400060008000A000C00100020002C
:104A300040008000000101000200040006000800A0
:104A40000A000C001000200040008000000100005F
:104A500002400000000000A000000000054000002F
:104A6000000000C8000000000C4000000000409C56
:104A700000000000194000000020BCBE0000000043
:104A800034400000BFC91B8E00000004B540000088
:104A9000504BCFD06607E2CF010000006C41000010
:104AA0003E8251AADFEEA73401000000D942000087
:104AB000DCB5A0E23A301F97FFFFFFFFB4450000CE
:104AC000FD25A0C8E9A3C14FFFFFFFFFFF3F000086
:104AD0000000008000000000FF3F00000000008098
:104AE00000000000304B0008000000249006000089
:104AF000D4020008C05100089006002438000000CD
:104B0000D4020008F8510008C8060024104303002E
:104B1000F00200081C00000043000000F8FFFFFF47
:104B20000C0000000E0000000F0000002E0000002E
:104B300040F2D93CC0F6000C604740F2C77CC0F69A
:104B4000000C604740F2837CC0F6000C604740F2E6
:104B5000374CC0F6000C604740F2755CC0F6000CA4
:104B6000604740F2F96CC0F6000C604710B504468F
:104B70001420FFF7DDFF2049086014211E4800685B
:104B8000FFF7DBFF1C48006808B9002010BD04F5E2
:104B9000806019490968086048F60400FFF7C8FFFB
:104BA00015490968886014480068806808B90020C1
:104BB000ECE711490968886848F60401FFF7BDFF72
:104BC0000D4909680868FFF7B3FF0B490968C86019
:104BD000094A12681168084A1268D068FFF7B2FFE4
:104BE00005480068C0680449096808610020024956
:104BF000096848600120C9E7AC06002470B52DEDB6
:104C0000028B04460D462946204600F073F80646FE
:104C1000124909688868FFF79AFF1049096808690E
:104C2000FFF795FF0D480068FFF791FF0C4890EDE6
:104C3000000AB8EE400B9FED0B1B81EE002BB0EE8F
:104C4000428B016809A0FFF787FF53EC182B0CA0DB
:104C5000FFF782FF3046BDEC028B70BDAC0600242E
:104C6000A80600240000000060E35641746F7461E0
:104C70006C5F74696D653A25646D730D0A00000000
:104C800073706565643A256C66427974652F6D733F
:104C90000D0A00002DE9F04105460C4616461F4658
:104CA00013490968224608692946FFF75AFF104848
:104CB0000068006920440E49096808610C480068D2
:104CC000406820440A49096848600948006841680A
:104CD000074800680068A0F58060814205D3394626
:104CE000304600F007F8BDE8F0810020FBE7000047
:104CF000AC0600242DE9F04105460C462348006827
:104D000047683846FFF714FF064620490968886857
:104D100048F60401FFF711FF00201D4908601B49F8
:104D200009688B68194909684A6818490968C86898
:104D3000294600F093F82060164800681449096875
:104D40000844144908602068C8B113482268016803
:104D50000068401C104B1860104840F821200B4898
:104D60000068C068094909680861002007490968A6
:104D700048603046FFF7EBFE0120BDE8F081304689
:104D8000FFF7E5FE4FF0FF30F7E70000AC06002428
:104D9000C0060024A8060024A4060024100800244D
:104DA00010B502460B461146012B1DD0022B16D022
:104DB000032B0CD0042B19D108784C7840EA04203E
:104DC0008C7840EA0440CC7840EA046010BD087852
:104DD0004C7840EA04208C7840EA0440F6E70878F2
:104DE0004C7840EA0420F1E70878EFE70020EDE78F
:104DF00010B50B461946012A17D0022A11D0032AF2
:104E000009D0042A13D10870040A4C70040C8C7069
:104E1000040ECC7010BD0870040A4C70040C8C7029
:104E2000F8E70870040A4C70F4E70870F2E700BF76
:104E3000F0E70146480A80EA51304840C0F30A00D2
:104E4000704770B5044603212046FFF7A9FF0646C8
:104E50003046FFF7EEFF0546284670BD2DE9F047C6
:104E600082460C461646994616B116F5C87F02D3FF
:104E70000020BDE8F087D82E01D2032500E00925E7
:104E8000484600F08FF961194B463246504600F013
:104E900032F800EB0508A84508D1601932465146A2
:104EA000FFF75FFE06EB0508002700E00127002062
:104EB000C9F80000032D04D1277084F80180A67082
:104EC0000DE0F8B240F0020020700422611C404660
:104ED000FFF78EFF0422611D3046FFF789FF20781F
:104EE00040F008002070207840F0400020702078CA
:104EF00020704046BDE72DE9FF4F8BB098460D99D5
:104F00000B980844401E0A900B9C0C9809900C9832
:104F1000061D4FF000470A980A38089000200790B5
:104F200006900898844204D803212046FFF738FFF2
:104F30000790E5E007F0010010B30D990B9800EB26
:104F40005100A0420BD20B98201AA0EB60110C98D4
:104F5000301A814203DA00200FB0BDE8F08F4FF025
:104F6000004141EA570004220999FFF741FF0996E1
:104F7000361D4FF0004703212046FFF711FF079031
:104F8000002003900A98001F001B401CFF2801DD31
:104F9000FF2003E00A98001F001B401C0190032122
:104FA0002046FFF7FDFE07900798FFF742FF814676
:104FB00048F20400404410F80900029008F104008F
:104FC00000EB091000680490A11E049881421DD9CD
:104FD000029800281ADD03210498FFF7E1FE0799E3
:104FE000484020F07F4088B903250498405D615D0A
:104FF00088420CD1042500E06D1C0498405D615D81
:10500000884204D101988542F6D300E000254FF094
:10501000010A30E008F1040000EB091050F82A0002
:105020000590615D0598405D814222D1032105987C
:10503000FFF7B6FE0799484020F07F40C8B9A01E90
:105040000599884215D94FF0030B01E00BF1010BD4
:10505000059810F80B0014F80B10884202D1019843
:105060008345F3D3AB4504D9059804905D46CDF84C
:105070000CA00AF1010ABAF1040F02D202985045BD
:10508000C8D80498059008F1040000EB09110298B3
:1050900000F0030041F820400298401CC0B202908A
:1050A00048F204014144029801F80900022D21D977
:1050B0004FF0004040EA57072C440A2D0DD2A81E9D
:1050C000039941EA800040EA4910009002223146EB
:1050D0000098FFF78DFEB61C11E0039840EA0540EA
:1050E00040EA49100090032231460098FFF780FE05
:1050F000F61C04E020783070641C761C7F0800BF2A
:10510000089884427FF616AF32E007F0010058B1EC
:105110004FF0004141EA570004220999FFF768FE69
:105120000996361D4FF000470A98C01EA0421AD3B8
:105130002046FFF786FE054648F20400404410F87A
:10514000059008F1040000EB051009F0030140F898
:10515000214009F1010000F0FF0948F20400404439
:1051600000F8059000BF20783070641C761C7F0822
:105170000A988442C9D900E07F0807F0010000289E
:10518000FAD04FF0004141EA570004220999FFF795
:105190002FFE0C98301A092801DA0920DCE60C9859
:1051A000301AD9E60146002005E0002248F2040347
:1051B0000B441A54401CB0F5006FF6DB704700003A
:1051C0000090D0030090D003000000000000000019
:1051D00000000000000000000000000000000000CF
:1051E00000000000000000001000000001000000AE
:0851F0000000000000000000B7
:040000050800029954
:00000001FF
